:100000000C942A000C9434000C9434000C943400AA
:100010000C9434000C9434000C9434000C94340090
:100020000C9434000C9434000C9434000C94340080
:100030000C9434000C9434000C9434000C94340070
:100040000C9434000C9434000C9434000C94340060
:100050000C94340011241FBECFE5D8E0DEBFCDBF25
:100060000E94DE050C94F6050C940000DF93CF93FC
:1000700000D000D0CDB7DEB789836A838981282F6D
:1000800030E03C832B838B819C8181309105D1F0C2
:100090002B813C81223031052CF48B819C8100978F
:1000A00061F01EC02B813C812230310581F08B81B3
:1000B0009C818330910581F013C0EAE3F0E08A81EE
:1000C00080830EC0E7E3F0E08A81808309C0E4E327
:1000D000F0E08A81808304C0E1E3F0E08A818083DC
:1000E0000F900F900F900F90CF91DF910895DF93B5
:1000F000CF9300D000D0CDB7DEB789836A838981E2
:10010000282F30E03C832B838B819C8181309105AB
:10011000D1F02B813C81223031052CF48B819C81E4
:10012000009761F01EC02B813C812230310581F0A7
:100130008B819C818330910581F013C0EBE3F0E06B
:100140008A8180830EC0E8E3F0E08A81808309C061
:10015000E5E3F0E08A81808304C0E2E3F0E08A8195
:1001600080830F900F900F900F90CF91DF910895A3
:10017000DF93CF93CDB7DEB727970FB6F894DEBFE6
:100180000FBECDBF89836A834B838B81813009F099
:100190006FC08981282F30E03F832E838E819F811D
:1001A0008130910549F12E813F81223031052CF4B7
:1001B0008E819F81009761F0D2C02E813F812230D5
:1001C000310571F18E819F8183309105E9F1C7C0BE
:1001D000AAE3B0E0EAE3F0E08081482F8A81282F8B
:1001E00030E081E090E0022E02C0880F991F0A944F
:1001F000E2F7842B8C93B3C0A7E3B0E0E7E3F0E031
:100200008081482F8A81282F30E081E090E0022E03
:1002100002C0880F991F0A94E2F7842B8C939FC029
:10022000A4E3B0E0E4E3F0E08081482F8A81282F46
:1002300030E081E090E0022E02C0880F991F0A94FE
:10024000E2F7842B8C938BC0A1E3B0E0E1E3F0E014
:100250008081482F8A81282F30E081E090E0022EB3
:1002600002C0880F991F0A94E2F7842B8C9377C001
:100270008B81882309F073C08981282F30E03D836A
:100280002C838C819D818130910559F12C813D8198
:10029000223031052CF48C819D81009769F05FC07C
:1002A0002C813D812230310589F18C819D81833003
:1002B000910509F440C053C0AAE3B0E0EAE3F0E0DE
:1002C0008081482F8A81282F30E081E090E0022E43
:1002D00002C0880F991F0A94E2F7809584238C93BB
:1002E0003EC0A7E3B0E0E7E3F0E08081482F8A81D9
:1002F000282F30E081E090E0022E02C0880F991F85
:100300000A94E2F7809584238C9329C0A4E3B0E09B
:10031000E4E3F0E08081482F8A81282F30E081E0FB
:1003200090E0022E02C0880F991F0A94E2F7809590
:1003300084238C9314C0A1E3B0E0E1E3F0E080817A
:10034000482F8A81282F30E081E090E0022E02C001
:10035000880F991F0A94E2F7809584238C9327963F
:100360000FB6F894DEBF0FBECDBFCF91DF910895D9
:10037000DF93CF93CDB7DEB727970FB6F894DEBFE4
:100380000FBECDBF89836A834B838B81813009F097
:100390006FC08981282F30E03F832E838E819F811B
:1003A0008130910549F12E813F81223031052CF4B5
:1003B0008E819F81009761F0D2C02E813F812230D3
:1003C000310571F18E819F8183309105E9F1C7C0BC
:1003D000ABE3B0E0EBE3F0E08081482F8A81282F87
:1003E00030E081E090E0022E02C0880F991F0A944D
:1003F000E2F7842B8C93B3C0A8E3B0E0E8E3F0E02D
:100400008081482F8A81282F30E081E090E0022E01
:1004100002C0880F991F0A94E2F7842B8C939FC027
:10042000A5E3B0E0E5E3F0E08081482F8A81282F42
:1004300030E081E090E0022E02C0880F991F0A94FC
:10044000E2F7842B8C938BC0A2E3B0E0E2E3F0E010
:100450008081482F8A81282F30E081E090E0022EB1
:1004600002C0880F991F0A94E2F7842B8C9377C0FF
:100470008B81882309F073C08981282F30E03D8368
:100480002C838C819D818130910559F12C813D8196
:10049000223031052CF48C819D81009769F05FC07A
:1004A0002C813D812230310589F18C819D81833001
:1004B000910509F440C053C0ABE3B0E0EBE3F0E0DA
:1004C0008081482F8A81282F30E081E090E0022E41
:1004D00002C0880F991F0A94E2F7809584238C93B9
:1004E0003EC0A8E3B0E0E8E3F0E08081482F8A81D5
:1004F000282F30E081E090E0022E02C0880F991F83
:100500000A94E2F7809584238C9329C0A5E3B0E098
:10051000E5E3F0E08081482F8A81282F30E081E0F8
:1005200090E0022E02C0880F991F0A94E2F780958E
:1005300084238C9314C0A2E3B0E0E2E3F0E0808176
:10054000482F8A81282F30E081E090E0022E02C0FF
:10055000880F991F0A94E2F7809584238C9327963D
:100560000FB6F894DEBF0FBECDBFCF91DF910895D7
:10057000DF93CF9300D000D00F92CDB7DEB78A8340
:100580006B8319828A81282F30E03D832C834C8134
:100590005D814130510541F18C819D818230910511
:1005A00034F42C813D812115310561F052C04C811C
:1005B0005D814230510551F18C819D8183309105DF
:1005C000B9F147C0E9E3F0E08081282F30E08B816A
:1005D000882F90E0A90102C0559547958A95E2F7CA
:1005E000CA018170898335C0E6E3F0E08081282F5D
:1005F00030E08B81882F90E0A90102C05595479586
:100600008A95E2F7CA018170898323C0E3E3F0E0B1
:100610008081282F30E08B81882F90E0A90102C0D3
:10062000559547958A95E2F7CA018170898311C073
:10063000E0E3F0E08081282F30E08B81882F90E08C
:10064000A90102C0559547958A95E2F7CA018170C4
:10065000898389810F900F900F900F900F90CF9109
:10066000DF910895DF93CF9300D000D0CDB7DEB7F0
:1006700089836A838981282F30E03C832B838B8197
:100680009C818130910549F12B813C8122303105DB
:100690002CF48B819C81009761F05AC02B813C81A6
:1006A0002230310571F18B819C8183309105E9F114
:1006B0004FC0ABE3B0E0EBE3F0E08081482F8A81EC
:1006C000282F30E081E090E0022E02C0880F991FB1
:1006D0000A94E2F784278C933BC0A8E3B0E0E8E3F8
:1006E000F0E08081482F8A81282F30E081E090E07F
:1006F000022E02C0880F991F0A94E2F784278C9378
:1007000027C0A5E3B0E0E5E3F0E08081482F8A81CF
:10071000282F30E081E090E0022E02C0880F991F60
:100720000A94E2F784278C9313C0A2E3B0E0E2E3DB
:10073000F0E08081482F8A81282F30E081E090E02E
:10074000022E02C0880F991F0A94E2F784278C9327
:100750000F900F900F900F90CF91DF910895DF933E
:10076000CF93CDB7DEB781E060E041E00E94B800F2
:1007700081E061E041E00E94B80081E062E041E098
:100780000E94B80081E064E041E00E94B80081E08E
:1007900066E041E00E94B80081E065E041E00E942F
:1007A000B80080E062E041E00E94B80080E063E0D1
:1007B00041E00E94B80081E066E041E00E94B8019B
:1007C00081E065E041E00E94B80180E062E041E044
:1007D0000E94B80180E063E041E00E94B801CF913F
:1007E000DF910895DF93CF9300D00F92CDB7DEB79E
:1007F00089838981282F30E03B832A838A819B81EA
:1008000082309105E1F02A813B812330310534F4B7
:100810008A819B818130910561F022C02A813B81D0
:100820002330310591F08A819B818430910599F0C4
:1008300017C081E066E040E00E94B80111C081E08D
:1008400065E040E00E94B8010BC080E062E040E05B
:100850000E94B80105C080E063E040E00E94B8015A
:100860000F900F900F90CF91DF910895DF93CF936A
:1008700000D00F92CDB7DEB789838981282F30E071
:100880003B832A838A819B8182309105E1F02A8112
:100890003B812330310534F48A819B81813091057D
:1008A00061F022C02A813B812330310591F08A8199
:1008B0009B818430910599F017C081E066E041E0AA
:1008C0000E94B80111C081E065E041E00E94B801DA
:1008D0000BC080E062E041E00E94B80105C080E00A
:1008E00063E041E00E94B8010F900F900F90CF910C
:1008F000DF910895DF93CF930F92CDB7DEB7898351
:100900008981982F917081E060E0492F0E94B801A1
:1009100089818695982F917081E061E0492F0E942E
:10092000B801898186958695982F917081E062E063
:10093000492F0E94B8018981869586958695982FC2
:10094000917081E064E0492F0E94B8010F90CF912F
:10095000DF910895DF93CF93CDB7DEB7E8970FB659
:10096000F894DEBF0FBECDBF19821A821B821C8293
:100970000FC11D821E821F82188619861A861B8649
:100980001C861D868D819E81892B9F81892B988550
:10099000892B9985892B9A85892B9B85892B9C8509
:1009A000892B882311F021E02D878D818E879E81F0
:1009B0009F872F81288B8885898B99859A8B2A859B
:1009C0002B8B8B858C8B9C859D8B21E02E8B1F8A9E
:1009D000188E198E1A8E1B8E1C8E1D8E8E859E89EA
:1009E000890F8E8F21E02EA38E8D9E85891708F0AA
:1009F0001EA22F858F89280F2F8F91E09FA32F8D07
:100A00008F85281708F01FA29EA12F8D920F98A7FF
:100A100081E089A798A52F8D921708F019A68FA1BC
:100A200099A5892B8FA328A52F8F8889988D890F49
:100A300088A321E02AA788A19889891708F01AA617
:100A40002FA188A1280F2BA791E09CA72BA588A1F7
:100A5000281708F01CA69AA52CA5922B9AA78BA55F
:100A600088A39989298D920F99A381E08DA799A1D7
:100A70002989921708F01DA68AA599A1890F8EA72A
:100A800021E02FA78EA599A1891708F01FA62DA5F3
:100A90008FA5282B2DA79EA599A32A898A8D280F7B
:100AA0002AA391E098AB2AA18A89281708F018AAEE
:100AB0009DA52AA1920F99AB81E08AAB99A92AA1A1
:100AC000921708F01AAA88A99AA9892B88AB29A994
:100AD0002AA38B899B8D890F8BA321E02BAB8BA144
:100AE0009B89891708F01BAA28A98BA1280F2CAB7A
:100AF00091E09DAB2CA98BA1281708F01DAA9BA9FA
:100B00002DA9922B9BAB8CA98BA39C892C8D920F2A
:100B10009CA381E08EAB9CA12C89921708F01EAAA1
:100B20008BA99CA1890F8FAB21E028AF8FA99CA135
:100B3000891708F018AE2EA988AD282B2EAB9FA9D7
:100B40009CA32D898D8D280F2DA38EA99DA1890F82
:100B50008DA32E8D2D838F8D8E8398A19F8329A1A8
:100B600028878AA189879BA19A872CA12B878DA191
:100B70008C879D85992309F004CF89819A81AB8167
:100B8000BC810196A11DB11D89839A83AB83BC836F
:100B900089819A81AB81BC81803127E2920720E074
:100BA000A20720E0B20708F4E4CEE8960FB6F89466
:100BB000DEBF0FBECDBFCF91DF910895DF93CF93FE
:100BC0000F92CDB7DEB70E94AF0384E00E94F2031C
:100BD000198208C089810E947A040E94AA0489812E
:100BE0008F5F898389818A30A8F3F2CFF894FFCF91
:00000001FF
